{
  "_format": "hh-sol-artifact-1",
  "contractName": "SR",
  "sourceName": "contracts/SR.sol",
  "abi": [
    {
      "inputs": [],
      "stateMutability": "nonpayable",
      "type": "constructor"
    },
    {
      "anonymous": false,
      "inputs": [
        {
          "indexed": true,
          "internalType": "address",
          "name": "owner",
          "type": "address"
        },
        {
          "indexed": true,
          "internalType": "address",
          "name": "approved",
          "type": "address"
        },
        {
          "indexed": true,
          "internalType": "uint256",
          "name": "tokenId",
          "type": "uint256"
        }
      ],
      "name": "Approval",
      "type": "event"
    },
    {
      "anonymous": false,
      "inputs": [
        {
          "indexed": true,
          "internalType": "address",
          "name": "owner",
          "type": "address"
        },
        {
          "indexed": true,
          "internalType": "address",
          "name": "operator",
          "type": "address"
        },
        {
          "indexed": false,
          "internalType": "bool",
          "name": "approved",
          "type": "bool"
        }
      ],
      "name": "ApprovalForAll",
      "type": "event"
    },
    {
      "anonymous": false,
      "inputs": [
        {
          "indexed": false,
          "internalType": "address",
          "name": "sender",
          "type": "address"
        },
        {
          "indexed": false,
          "internalType": "uint256",
          "name": "tokenId",
          "type": "uint256"
        }
      ],
      "name": "NewEpicNFTMinted",
      "type": "event"
    },
    {
      "anonymous": false,
      "inputs": [
        {
          "indexed": true,
          "internalType": "address",
          "name": "from",
          "type": "address"
        },
        {
          "indexed": true,
          "internalType": "address",
          "name": "to",
          "type": "address"
        },
        {
          "indexed": true,
          "internalType": "uint256",
          "name": "tokenId",
          "type": "uint256"
        }
      ],
      "name": "Transfer",
      "type": "event"
    },
    {
      "inputs": [
        {
          "internalType": "address",
          "name": "to",
          "type": "address"
        },
        {
          "internalType": "uint256",
          "name": "tokenId",
          "type": "uint256"
        }
      ],
      "name": "approve",
      "outputs": [],
      "stateMutability": "nonpayable",
      "type": "function"
    },
    {
      "inputs": [
        {
          "internalType": "address",
          "name": "owner",
          "type": "address"
        }
      ],
      "name": "balanceOf",
      "outputs": [
        {
          "internalType": "uint256",
          "name": "",
          "type": "uint256"
        }
      ],
      "stateMutability": "view",
      "type": "function"
    },
    {
      "inputs": [
        {
          "internalType": "uint256",
          "name": "tokenId",
          "type": "uint256"
        }
      ],
      "name": "getApproved",
      "outputs": [
        {
          "internalType": "address",
          "name": "",
          "type": "address"
        }
      ],
      "stateMutability": "view",
      "type": "function"
    },
    {
      "inputs": [
        {
          "internalType": "address",
          "name": "owner",
          "type": "address"
        },
        {
          "internalType": "address",
          "name": "operator",
          "type": "address"
        }
      ],
      "name": "isApprovedForAll",
      "outputs": [
        {
          "internalType": "bool",
          "name": "",
          "type": "bool"
        }
      ],
      "stateMutability": "view",
      "type": "function"
    },
    {
      "inputs": [],
      "name": "makeAnEpicNFT",
      "outputs": [],
      "stateMutability": "nonpayable",
      "type": "function"
    },
    {
      "inputs": [],
      "name": "name",
      "outputs": [
        {
          "internalType": "string",
          "name": "",
          "type": "string"
        }
      ],
      "stateMutability": "view",
      "type": "function"
    },
    {
      "inputs": [
        {
          "internalType": "uint256",
          "name": "tokenId",
          "type": "uint256"
        }
      ],
      "name": "ownerOf",
      "outputs": [
        {
          "internalType": "address",
          "name": "",
          "type": "address"
        }
      ],
      "stateMutability": "view",
      "type": "function"
    },
    {
      "inputs": [
        {
          "internalType": "address",
          "name": "from",
          "type": "address"
        },
        {
          "internalType": "address",
          "name": "to",
          "type": "address"
        },
        {
          "internalType": "uint256",
          "name": "tokenId",
          "type": "uint256"
        }
      ],
      "name": "safeTransferFrom",
      "outputs": [],
      "stateMutability": "nonpayable",
      "type": "function"
    },
    {
      "inputs": [
        {
          "internalType": "address",
          "name": "from",
          "type": "address"
        },
        {
          "internalType": "address",
          "name": "to",
          "type": "address"
        },
        {
          "internalType": "uint256",
          "name": "tokenId",
          "type": "uint256"
        },
        {
          "internalType": "bytes",
          "name": "data",
          "type": "bytes"
        }
      ],
      "name": "safeTransferFrom",
      "outputs": [],
      "stateMutability": "nonpayable",
      "type": "function"
    },
    {
      "inputs": [
        {
          "internalType": "address",
          "name": "operator",
          "type": "address"
        },
        {
          "internalType": "bool",
          "name": "approved",
          "type": "bool"
        }
      ],
      "name": "setApprovalForAll",
      "outputs": [],
      "stateMutability": "nonpayable",
      "type": "function"
    },
    {
      "inputs": [
        {
          "internalType": "bytes4",
          "name": "interfaceId",
          "type": "bytes4"
        }
      ],
      "name": "supportsInterface",
      "outputs": [
        {
          "internalType": "bool",
          "name": "",
          "type": "bool"
        }
      ],
      "stateMutability": "view",
      "type": "function"
    },
    {
      "inputs": [],
      "name": "symbol",
      "outputs": [
        {
          "internalType": "string",
          "name": "",
          "type": "string"
        }
      ],
      "stateMutability": "view",
      "type": "function"
    },
    {
      "inputs": [
        {
          "internalType": "uint256",
          "name": "tokenId",
          "type": "uint256"
        }
      ],
      "name": "tokenURI",
      "outputs": [
        {
          "internalType": "string",
          "name": "",
          "type": "string"
        }
      ],
      "stateMutability": "view",
      "type": "function"
    },
    {
      "inputs": [
        {
          "internalType": "address",
          "name": "from",
          "type": "address"
        },
        {
          "internalType": "address",
          "name": "to",
          "type": "address"
        },
        {
          "internalType": "uint256",
          "name": "tokenId",
          "type": "uint256"
        }
      ],
      "name": "transferFrom",
      "outputs": [],
      "stateMutability": "nonpayable",
      "type": "function"
    }
  ],
  "bytecode": "0x60806040523480156200001157600080fd5b506040518060400160405280600d81526020017f535220436f6e73756c74696e67000000000000000000000000000000000000008152506040518060400160405280600281526020017f5352000000000000000000000000000000000000000000000000000000000000815250816000908051906020019062000096929190620000b8565b508060019080519060200190620000af929190620000b8565b505050620001cd565b828054620000c69062000168565b90600052602060002090601f016020900481019282620000ea576000855562000136565b82601f106200010557805160ff191683800117855562000136565b8280016001018555821562000136579182015b828111156200013557825182559160200191906001019062000118565b5b50905062000145919062000149565b5090565b5b80821115620001645760008160009055506001016200014a565b5090565b600060028204905060018216806200018157607f821691505b602082108114156200019857620001976200019e565b5b50919050565b7f4e487b7100000000000000000000000000000000000000000000000000000000600052602260045260246000fd5b6129f180620001dd6000396000f3fe608060405234801561001057600080fd5b50600436106100ea5760003560e01c806370a082311161008c578063b88d4fde11610066578063b88d4fde1461025b578063c87b56dd14610277578063de9d132f146102a7578063e985e9c5146102b1576100ea565b806370a08231146101f157806395d89b4114610221578063a22cb4651461023f576100ea565b8063095ea7b3116100c8578063095ea7b31461016d57806323b872dd1461018957806342842e0e146101a55780636352211e146101c1576100ea565b806301ffc9a7146100ef57806306fdde031461011f578063081812fc1461013d575b600080fd5b61010960048036038101906101049190611c56565b6102e1565b6040516101169190611ff9565b60405180910390f35b6101276103c3565b6040516101349190612014565b60405180910390f35b61015760048036038101906101529190611ca8565b610455565b6040516101649190611f69565b60405180910390f35b61018760048036038101906101829190611c1a565b61049b565b005b6101a3600480360381019061019e9190611b14565b6105b3565b005b6101bf60048036038101906101ba9190611b14565b610613565b005b6101db60048036038101906101d69190611ca8565b610633565b6040516101e89190611f69565b60405180910390f35b61020b60048036038101906102069190611aaf565b6106e5565b60405161021891906121f4565b60405180910390f35b61022961079d565b6040516102369190612014565b60405180910390f35b61025960048036038101906102549190611bde565b61082f565b005b61027560048036038101906102709190611b63565b610845565b005b610291600480360381019061028c9190611ca8565b6108a7565b60405161029e9190612014565b60405180910390f35b6102af6109ba565b005b6102cb60048036038101906102c69190611ad8565b610a5d565b6040516102d89190611ff9565b60405180910390f35b60007f80ac58cd000000000000000000000000000000000000000000000000000000007bffffffffffffffffffffffffffffffffffffffffffffffffffffffff1916827bffffffffffffffffffffffffffffffffffffffffffffffffffffffff191614806103ac57507f5b5e139f000000000000000000000000000000000000000000000000000000007bffffffffffffffffffffffffffffffffffffffffffffffffffffffff1916827bffffffffffffffffffffffffffffffffffffffffffffffffffffffff1916145b806103bc57506103bb82610af1565b5b9050919050565b6060600080546103d290612419565b80601f01602080910402602001604051908101604052809291908181526020018280546103fe90612419565b801561044b5780601f106104205761010080835404028352916020019161044b565b820191906000526020600020905b81548152906001019060200180831161042e57829003601f168201915b5050505050905090565b600061046082610b5b565b6004600083815260200190815260200160002060009054906101000a900473ffffffffffffffffffffffffffffffffffffffff169050919050565b60006104a682610633565b90508073ffffffffffffffffffffffffffffffffffffffff168373ffffffffffffffffffffffffffffffffffffffff161415610517576040517f08c379a000000000000000000000000000000000000000000000000000000000815260040161050e906121b4565b60405180910390fd5b8073ffffffffffffffffffffffffffffffffffffffff16610536610ba6565b73ffffffffffffffffffffffffffffffffffffffff16148061056557506105648161055f610ba6565b610a5d565b5b6105a4576040517f08c379a000000000000000000000000000000000000000000000000000000000815260040161059b90612154565b60405180910390fd5b6105ae8383610bae565b505050565b6105c46105be610ba6565b82610c67565b610603576040517f08c379a00000000000000000000000000000000000000000000000000000000081526004016105fa906121d4565b60405180910390fd5b61060e838383610cfc565b505050565b61062e83838360405180602001604052806000815250610845565b505050565b6000806002600084815260200190815260200160002060009054906101000a900473ffffffffffffffffffffffffffffffffffffffff169050600073ffffffffffffffffffffffffffffffffffffffff168173ffffffffffffffffffffffffffffffffffffffff1614156106dc576040517f08c379a00000000000000000000000000000000000000000000000000000000081526004016106d390612194565b60405180910390fd5b80915050919050565b60008073ffffffffffffffffffffffffffffffffffffffff168273ffffffffffffffffffffffffffffffffffffffff161415610756576040517f08c379a000000000000000000000000000000000000000000000000000000000815260040161074d90612114565b60405180910390fd5b600360008373ffffffffffffffffffffffffffffffffffffffff1673ffffffffffffffffffffffffffffffffffffffff168152602001908152602001600020549050919050565b6060600180546107ac90612419565b80601f01602080910402602001604051908101604052809291908181526020018280546107d890612419565b80156108255780601f106107fa57610100808354040283529160200191610825565b820191906000526020600020905b81548152906001019060200180831161080857829003601f168201915b5050505050905090565b61084161083a610ba6565b8383610f63565b5050565b610856610850610ba6565b83610c67565b610895576040517f08c379a000000000000000000000000000000000000000000000000000000000815260040161088c906121d4565b60405180910390fd5b6108a1848484846110d0565b50505050565b60606108b282610b5b565b60006006600084815260200190815260200160002080546108d290612419565b80601f01602080910402602001604051908101604052809291908181526020018280546108fe90612419565b801561094b5780601f106109205761010080835404028352916020019161094b565b820191906000526020600020905b81548152906001019060200180831161092e57829003601f168201915b50505050509050600061095c61112c565b90506000815114156109725781925050506109b5565b6000825111156109a757808260405160200161098f929190611f45565b604051602081830303815290604052925050506109b5565b6109b084611143565b925050505b919050565b60006109c660076111ab565b90506109d233826111b9565b6109f4816040518060800160405280605a815260200161293c605a91396111d7565b610a1760405180606001604052806026815260200161299660269139823361124b565b610a2160076112ea565b7febb98688741ffa4c7589bf325de30cf7becb63de567842e1ccdb6cb949fdc82c3382604051610a52929190611fd0565b60405180910390a150565b6000600560008473ffffffffffffffffffffffffffffffffffffffff1673ffffffffffffffffffffffffffffffffffffffff16815260200190815260200160002060008373ffffffffffffffffffffffffffffffffffffffff1673ffffffffffffffffffffffffffffffffffffffff16815260200190815260200160002060009054906101000a900460ff16905092915050565b60007f01ffc9a7000000000000000000000000000000000000000000000000000000007bffffffffffffffffffffffffffffffffffffffffffffffffffffffff1916827bffffffffffffffffffffffffffffffffffffffffffffffffffffffff1916149050919050565b610b6481611300565b610ba3576040517f08c379a0000000000000000000000000000000000000000000000000000000008152600401610b9a90612194565b60405180910390fd5b50565b600033905090565b816004600083815260200190815260200160002060006101000a81548173ffffffffffffffffffffffffffffffffffffffff021916908373ffffffffffffffffffffffffffffffffffffffff160217905550808273ffffffffffffffffffffffffffffffffffffffff16610c2183610633565b73ffffffffffffffffffffffffffffffffffffffff167f8c5be1e5ebec7d5bd14f71427d1e84f3dd0314c0f7b2291e5b200ac8c7c3b92560405160405180910390a45050565b600080610c7383610633565b90508073ffffffffffffffffffffffffffffffffffffffff168473ffffffffffffffffffffffffffffffffffffffff161480610cb55750610cb48185610a5d565b5b80610cf357508373ffffffffffffffffffffffffffffffffffffffff16610cdb84610455565b73ffffffffffffffffffffffffffffffffffffffff16145b91505092915050565b8273ffffffffffffffffffffffffffffffffffffffff16610d1c82610633565b73ffffffffffffffffffffffffffffffffffffffff1614610d72576040517f08c379a0000000000000000000000000000000000000000000000000000000008152600401610d6990612094565b60405180910390fd5b600073ffffffffffffffffffffffffffffffffffffffff168273ffffffffffffffffffffffffffffffffffffffff161415610de2576040517f08c379a0000000000000000000000000000000000000000000000000000000008152600401610dd9906120d4565b60405180910390fd5b610ded83838361136c565b610df8600082610bae565b6001600360008573ffffffffffffffffffffffffffffffffffffffff1673ffffffffffffffffffffffffffffffffffffffff1681526020019081526020016000206000828254610e48919061232f565b925050819055506001600360008473ffffffffffffffffffffffffffffffffffffffff1673ffffffffffffffffffffffffffffffffffffffff1681526020019081526020016000206000828254610e9f91906122a8565b92505081905550816002600083815260200190815260200160002060006101000a81548173ffffffffffffffffffffffffffffffffffffffff021916908373ffffffffffffffffffffffffffffffffffffffff160217905550808273ffffffffffffffffffffffffffffffffffffffff168473ffffffffffffffffffffffffffffffffffffffff167fddf252ad1be2c89b69c2b068fc378daa952ba7f163c4a11628f55a4df523b3ef60405160405180910390a4610f5e838383611371565b505050565b8173ffffffffffffffffffffffffffffffffffffffff168373ffffffffffffffffffffffffffffffffffffffff161415610fd2576040517f08c379a0000000000000000000000000000000000000000000000000000000008152600401610fc9906120f4565b60405180910390fd5b80600560008573ffffffffffffffffffffffffffffffffffffffff1673ffffffffffffffffffffffffffffffffffffffff16815260200190815260200160002060008473ffffffffffffffffffffffffffffffffffffffff1673ffffffffffffffffffffffffffffffffffffffff16815260200190815260200160002060006101000a81548160ff0219169083151502179055508173ffffffffffffffffffffffffffffffffffffffff168373ffffffffffffffffffffffffffffffffffffffff167f17307eab39ab6107e8899845ad3d59bd9653f200f220920489ca2b5937696c31836040516110c39190611ff9565b60405180910390a3505050565b6110db848484610cfc565b6110e784848484611376565b611126576040517f08c379a000000000000000000000000000000000000000000000000000000000815260040161111d90612074565b60405180910390fd5b50505050565b606060405180602001604052806000815250905090565b606061114e82610b5b565b600061115861112c565b9050600081511161117857604051806020016040528060008152506111a3565b806111828461150d565b604051602001611193929190611f45565b6040516020818303038152906040525b915050919050565b600081600001549050919050565b6111d38282604051806020016040528060008152506116ba565b5050565b6111e082611300565b61121f576040517f08c379a000000000000000000000000000000000000000000000000000000000815260040161121690612134565b60405180910390fd5b8060066000848152602001908152602001600020908051906020019061124692919061193b565b505050565b6112e583838360405160240161126393929190612036565b6040516020818303038152906040527fe3849f79000000000000000000000000000000000000000000000000000000007bffffffffffffffffffffffffffffffffffffffffffffffffffffffff19166020820180517bffffffffffffffffffffffffffffffffffffffffffffffffffffffff8381831617835250505050611715565b505050565b6001816000016000828254019250508190555050565b60008073ffffffffffffffffffffffffffffffffffffffff166002600084815260200190815260200160002060009054906101000a900473ffffffffffffffffffffffffffffffffffffffff1673ffffffffffffffffffffffffffffffffffffffff1614159050919050565b505050565b505050565b60006113978473ffffffffffffffffffffffffffffffffffffffff1661173e565b15611500578373ffffffffffffffffffffffffffffffffffffffff1663150b7a026113c0610ba6565b8786866040518563ffffffff1660e01b81526004016113e29493929190611f84565b602060405180830381600087803b1580156113fc57600080fd5b505af192505050801561142d57506040513d601f19601f8201168201806040525081019061142a9190611c7f565b60015b6114b0573d806000811461145d576040519150601f19603f3d011682016040523d82523d6000602084013e611462565b606091505b506000815114156114a8576040517f08c379a000000000000000000000000000000000000000000000000000000000815260040161149f90612074565b60405180910390fd5b805181602001fd5b63150b7a0260e01b7bffffffffffffffffffffffffffffffffffffffffffffffffffffffff1916817bffffffffffffffffffffffffffffffffffffffffffffffffffffffff191614915050611505565b600190505b949350505050565b60606000821415611555576040518060400160405280600181526020017f300000000000000000000000000000000000000000000000000000000000000081525090506116b5565b600082905060005b600082146115875780806115709061247c565b915050600a8261158091906122fe565b915061155d565b60008167ffffffffffffffff8111156115c9577f4e487b7100000000000000000000000000000000000000000000000000000000600052604160045260246000fd5b6040519080825280601f01601f1916602001820160405280156115fb5781602001600182028036833780820191505090505b5090505b600085146116ae57600182611614919061232f565b9150600a8561162391906124c5565b603061162f91906122a8565b60f81b81838151811061166b577f4e487b7100000000000000000000000000000000000000000000000000000000600052603260045260246000fd5b60200101907effffffffffffffffffffffffffffffffffffffffffffffffffffffffffffff1916908160001a905350600a856116a791906122fe565b94506115ff565b8093505050505b919050565b6116c48383611761565b6116d16000848484611376565b611710576040517f08c379a000000000000000000000000000000000000000000000000000000000815260040161170790612074565b60405180910390fd5b505050565b60008151905060006a636f6e736f6c652e6c6f679050602083016000808483855afa5050505050565b6000808273ffffffffffffffffffffffffffffffffffffffff163b119050919050565b600073ffffffffffffffffffffffffffffffffffffffff168273ffffffffffffffffffffffffffffffffffffffff1614156117d1576040517f08c379a00000000000000000000000000000000000000000000000000000000081526004016117c890612174565b60405180910390fd5b6117da81611300565b1561181a576040517f08c379a0000000000000000000000000000000000000000000000000000000008152600401611811906120b4565b60405180910390fd5b6118266000838361136c565b6001600360008473ffffffffffffffffffffffffffffffffffffffff1673ffffffffffffffffffffffffffffffffffffffff168152602001908152602001600020600082825461187691906122a8565b92505081905550816002600083815260200190815260200160002060006101000a81548173ffffffffffffffffffffffffffffffffffffffff021916908373ffffffffffffffffffffffffffffffffffffffff160217905550808273ffffffffffffffffffffffffffffffffffffffff16600073ffffffffffffffffffffffffffffffffffffffff167fddf252ad1be2c89b69c2b068fc378daa952ba7f163c4a11628f55a4df523b3ef60405160405180910390a461193760008383611371565b5050565b82805461194790612419565b90600052602060002090601f01602090048101928261196957600085556119b0565b82601f1061198257805160ff19168380011785556119b0565b828001600101855582156119b0579182015b828111156119af578251825591602001919060010190611994565b5b5090506119bd91906119c1565b5090565b5b808211156119da5760008160009055506001016119c2565b5090565b60006119f16119ec84612234565b61220f565b905082815260208101848484011115611a0957600080fd5b611a148482856123d7565b509392505050565b600081359050611a2b816128df565b92915050565b600081359050611a40816128f6565b92915050565b600081359050611a558161290d565b92915050565b600081519050611a6a8161290d565b92915050565b600082601f830112611a8157600080fd5b8135611a918482602086016119de565b91505092915050565b600081359050611aa981612924565b92915050565b600060208284031215611ac157600080fd5b6000611acf84828501611a1c565b91505092915050565b60008060408385031215611aeb57600080fd5b6000611af985828601611a1c565b9250506020611b0a85828601611a1c565b9150509250929050565b600080600060608486031215611b2957600080fd5b6000611b3786828701611a1c565b9350506020611b4886828701611a1c565b9250506040611b5986828701611a9a565b9150509250925092565b60008060008060808587031215611b7957600080fd5b6000611b8787828801611a1c565b9450506020611b9887828801611a1c565b9350506040611ba987828801611a9a565b925050606085013567ffffffffffffffff811115611bc657600080fd5b611bd287828801611a70565b91505092959194509250565b60008060408385031215611bf157600080fd5b6000611bff85828601611a1c565b9250506020611c1085828601611a31565b9150509250929050565b60008060408385031215611c2d57600080fd5b6000611c3b85828601611a1c565b9250506020611c4c85828601611a9a565b9150509250929050565b600060208284031215611c6857600080fd5b6000611c7684828501611a46565b91505092915050565b600060208284031215611c9157600080fd5b6000611c9f84828501611a5b565b91505092915050565b600060208284031215611cba57600080fd5b6000611cc884828501611a9a565b91505092915050565b611cda81612363565b82525050565b611ce981612375565b82525050565b6000611cfa82612265565b611d04818561227b565b9350611d148185602086016123e6565b611d1d816125b2565b840191505092915050565b6000611d3382612270565b611d3d818561228c565b9350611d4d8185602086016123e6565b611d56816125b2565b840191505092915050565b6000611d6c82612270565b611d76818561229d565b9350611d868185602086016123e6565b80840191505092915050565b6000611d9f60328361228c565b9150611daa826125c3565b604082019050919050565b6000611dc260258361228c565b9150611dcd82612612565b604082019050919050565b6000611de5601c8361228c565b9150611df082612661565b602082019050919050565b6000611e0860248361228c565b9150611e138261268a565b604082019050919050565b6000611e2b60198361228c565b9150611e36826126d9565b602082019050919050565b6000611e4e60298361228c565b9150611e5982612702565b604082019050919050565b6000611e71602e8361228c565b9150611e7c82612751565b604082019050919050565b6000611e94603e8361228c565b9150611e9f826127a0565b604082019050919050565b6000611eb760208361228c565b9150611ec2826127ef565b602082019050919050565b6000611eda60188361228c565b9150611ee582612818565b602082019050919050565b6000611efd60218361228c565b9150611f0882612841565b604082019050919050565b6000611f20602e8361228c565b9150611f2b82612890565b604082019050919050565b611f3f816123cd565b82525050565b6000611f518285611d61565b9150611f5d8284611d61565b91508190509392505050565b6000602082019050611f7e6000830184611cd1565b92915050565b6000608082019050611f996000830187611cd1565b611fa66020830186611cd1565b611fb36040830185611f36565b8181036060830152611fc58184611cef565b905095945050505050565b6000604082019050611fe56000830185611cd1565b611ff26020830184611f36565b9392505050565b600060208201905061200e6000830184611ce0565b92915050565b6000602082019050818103600083015261202e8184611d28565b905092915050565b600060608201905081810360008301526120508186611d28565b905061205f6020830185611f36565b61206c6040830184611cd1565b949350505050565b6000602082019050818103600083015261208d81611d92565b9050919050565b600060208201905081810360008301526120ad81611db5565b9050919050565b600060208201905081810360008301526120cd81611dd8565b9050919050565b600060208201905081810360008301526120ed81611dfb565b9050919050565b6000602082019050818103600083015261210d81611e1e565b9050919050565b6000602082019050818103600083015261212d81611e41565b9050919050565b6000602082019050818103600083015261214d81611e64565b9050919050565b6000602082019050818103600083015261216d81611e87565b9050919050565b6000602082019050818103600083015261218d81611eaa565b9050919050565b600060208201905081810360008301526121ad81611ecd565b9050919050565b600060208201905081810360008301526121cd81611ef0565b9050919050565b600060208201905081810360008301526121ed81611f13565b9050919050565b60006020820190506122096000830184611f36565b92915050565b600061221961222a565b9050612225828261244b565b919050565b6000604051905090565b600067ffffffffffffffff82111561224f5761224e612583565b5b612258826125b2565b9050602081019050919050565b600081519050919050565b600081519050919050565b600082825260208201905092915050565b600082825260208201905092915050565b600081905092915050565b60006122b3826123cd565b91506122be836123cd565b9250827fffffffffffffffffffffffffffffffffffffffffffffffffffffffffffffffff038211156122f3576122f26124f6565b5b828201905092915050565b6000612309826123cd565b9150612314836123cd565b92508261232457612323612525565b5b828204905092915050565b600061233a826123cd565b9150612345836123cd565b925082821015612358576123576124f6565b5b828203905092915050565b600061236e826123ad565b9050919050565b60008115159050919050565b60007fffffffff0000000000000000000000000000000000000000000000000000000082169050919050565b600073ffffffffffffffffffffffffffffffffffffffff82169050919050565b6000819050919050565b82818337600083830152505050565b60005b838110156124045780820151818401526020810190506123e9565b83811115612413576000848401525b50505050565b6000600282049050600182168061243157607f821691505b6020821081141561244557612444612554565b5b50919050565b612454826125b2565b810181811067ffffffffffffffff8211171561247357612472612583565b5b80604052505050565b6000612487826123cd565b91507fffffffffffffffffffffffffffffffffffffffffffffffffffffffffffffffff8214156124ba576124b96124f6565b5b600182019050919050565b60006124d0826123cd565b91506124db836123cd565b9250826124eb576124ea612525565b5b828206905092915050565b7f4e487b7100000000000000000000000000000000000000000000000000000000600052601160045260246000fd5b7f4e487b7100000000000000000000000000000000000000000000000000000000600052601260045260246000fd5b7f4e487b7100000000000000000000000000000000000000000000000000000000600052602260045260246000fd5b7f4e487b7100000000000000000000000000000000000000000000000000000000600052604160045260246000fd5b6000601f19601f8301169050919050565b7f4552433732313a207472616e7366657220746f206e6f6e20455243373231526560008201527f63656976657220696d706c656d656e7465720000000000000000000000000000602082015250565b7f4552433732313a207472616e736665722066726f6d20696e636f72726563742060008201527f6f776e6572000000000000000000000000000000000000000000000000000000602082015250565b7f4552433732313a20746f6b656e20616c7265616479206d696e74656400000000600082015250565b7f4552433732313a207472616e7366657220746f20746865207a65726f2061646460008201527f7265737300000000000000000000000000000000000000000000000000000000602082015250565b7f4552433732313a20617070726f766520746f2063616c6c657200000000000000600082015250565b7f4552433732313a2061646472657373207a65726f206973206e6f74206120766160008201527f6c6964206f776e65720000000000000000000000000000000000000000000000602082015250565b7f45524337323155524953746f726167653a2055524920736574206f66206e6f6e60008201527f6578697374656e7420746f6b656e000000000000000000000000000000000000602082015250565b7f4552433732313a20617070726f76652063616c6c6572206973206e6f7420746f60008201527f6b656e206f776e6572206e6f7220617070726f76656420666f7220616c6c0000602082015250565b7f4552433732313a206d696e7420746f20746865207a65726f2061646472657373600082015250565b7f4552433732313a20696e76616c696420746f6b656e2049440000000000000000600082015250565b7f4552433732313a20617070726f76616c20746f2063757272656e74206f776e6560008201527f7200000000000000000000000000000000000000000000000000000000000000602082015250565b7f4552433732313a2063616c6c6572206973206e6f7420746f6b656e206f776e6560008201527f72206e6f7220617070726f766564000000000000000000000000000000000000602082015250565b6128e881612363565b81146128f357600080fd5b50565b6128ff81612375565b811461290a57600080fd5b50565b61291681612381565b811461292157600080fd5b50565b61292d816123cd565b811461293857600080fd5b5056fe68747470733a2f2f697066732e696f2f697066732f516d6371666176754d504b6a574450487a4b4a6b6145667154623273526353354a514d57524b5668376e725670393f66696c656e616d653d6a736f6e25323053522e747874556d204e465420636f6d206f20494420257320666f69206d696e7461646f2070617261202573a2646970667358221220535c68dae71946865c679e21c68d8c73cf6f39130e10a2b43f84a72355abece664736f6c63430008010033",
  "linkReferences": {},
  "deployedLinkReferences": {}
}